:0400000053EF00F0CA
:0E0008004E82FACFB9F0FBCFBAF0C2ED1CF079
:100018004E80D8CF01F0E8CF02F0E0CF03F0FACF5E
:1000280004F0FBCF05F0E9CF06F0EACF07F0E1CF07
:1000380008F0E2CF09F0D9CF0AF0DACF0BF0F3CF0E
:100048000CF0F4CF0DF0F6CF0EF0F7CF0FF0F8CF9D
:1000580010F0F5CF11F011C0F5FF10C0F8FF0FC078
:10006800F7FF0EC0F6FF0DC0F4FF0CC0F3FF0BC086
:10007800DAFF0AC0D9FF09C0E2FF08C0E1FF07C0E4
:10008800EAFF06C0E9FF05C0FBFF04C0FAFF03C092
:10009800E0FF02C0E8FF01C0D8FF4E9010009EEFBD
:1000A8001DF0FB0E0001E76F7F0E0001E86FC90E1F
:1000B8000001E96F7E0E0001EA6F33EC1DF0000EBF
:1000C8000201F16F020EF06FA0D33DEC20F0C7C023
:1000D800F0F2C8C0F1F20201F0510201F111D8B4F6
:1000E80012D0800E0001C76F020E0001C86FD40E37
:1000F8000001C96F7F0E0001CA6F24EC1FF0180EB3
:1001080001010C6F1200010E01010C6F120031EC9D
:1001180020F0C7C0F0F2C8C0F1F20201F0510201AC
:10012800F111D8B412D0800E0001C76F020E000181
:10013800C86F9E0E0001C96F7F0E0001CA6F24ECC4
:100148001FF0180E01010C6F1200020E01010C6F56
:10015800120053EC20F0030E01010C6F120037EC73
:1001680020F0C7C0F0F2C8C0F1F20201F05102015C
:10017800F111D8B412D0800E0001C76F020E000131
:10018800C86FB10E0001C96F7F0E0001CA6F24EC61
:100198001FF0180E01010C6F1200040E01010C6F04
:1001A800120054EC20F0050E01010C6F1200060E2F
:1001B80001010C6F1200070E01010C6F1200080EEE
:1001C80001010C6F120001010A51000AD8B4EFD7DF
:1001D800010AD8B4F0D7030AD8A41200F0D72BEC40
:1001E80020F0C7C0F0F2C8C0F1F20201F0510201DC
:1001F800F111D8B412D0800E0001C76F020E0001B1
:10020800C86F8B0E0001C96F7F0E0001CA6F24EC06
:100218001FF0180E01010C6F1200090E01010C6F7E
:10022800120052EC20F00A0E01010C6F1200170E9A
:100238000001C76F010E0001C86F920E0001C96F5F
:10024800010E0001CA6F000E0001CC6F050ECB6FC6
:1002580053EC17F00001C7510001C811D8B422D0DF
:1002680049EC20F0C7C0F0F2C8C0F1F20201F05129
:100278000201F111D8B412D0800E0001C76F020E2E
:100288000001C86F780E0001C96F7F0E0001CA6FA8
:1002980024EC1FF0180E01010C6F12000B0E010167
:1002A8000C6F1200170E0001C76F010E0001C86F16
:1002B800970E0001C96F010E0001CA6F000E000100
:1002C800CC6F050ECB6F53EC17F00001C75100013E
:1002D800C811D8A41200170E0001C76F010E000143
:1002E800C86F9C0E0001C96F010E0001CA6F000E95
:1002F8000001CC6F050ECB6F53EC17F01200010113
:100308000B51000AD8B493D7010AD8B41200030AD3
:10031800D8B41200010AD8B41200070A1200EE0E6F
:100328000101846F020E0101856FD2EC14F084C1C3
:10033800F0F285C1F1F20201F0510201F111D8B4D5
:1003480012D0800E0001C76F020E0001C86FAE0EFA
:100358000001C96F7E0E0001CA6F24EC1FF0180E51
:1003680001010C6F12000D0E01010C6F1200020149
:10037800EE510201EF11D8B422D0FBEC1DF08BC175
:10038800F0F28CC1F1F20201F0510201F111D8B47E
:1003980012D0800E0001C76F020E0001C86F900EC8
:1003A8000001C96F7E0E0001CA6F24EC1FF0180E01
:1003B80001010C6F12000E0E01010C6F120025ECEA
:1003C8001EF08BC1F0F28CC1F1F20201F051020172
:1003D800F111D8B412D0800E0001C76F020E0001CF
:1003E800C86F3D0E0001C96F7F0E0001CA6F24EC73
:1003F8001FF0180E01010C6F1200110E01010C6F95
:100408001200E40E01018B6F020E01018C6F8BEC60
:100418000CF08BC1F0F28CC1F1F20201F051020133
:10042800F111D8B412D0800E0001C76F020E00017E
:10043800C86F2D0E0001C96F7E0E0001CA6F24EC33
:100448001FF0180E01010C6F1200E40E0001C76FB7
:10045800020E0001C86FF70E0001C96F7F0E000180
:10046800CA6F000E0001CC6F030ECB6F53EC17F070
:100478000001C7510001C811D8B404D0100E010101
:100488000C6F1200E40E0001C76F020E0001C86F66
:10049800F10E0001C96F7F0E0001CA6F000E000146
:1004A800CC6F050ECB6F53EC17F00001C75100015C
:1004B800C811D8B412D0800E0001C76F020E000117
:1004C800C86F700E0001C96F7E0E0001CA6F24EC60
:1004D8001FF0180E01010C6F1200E40E0001C76F27
:1004E800020E0001C86FE20E0001C96F7F0E000105
:1004F800CA6F000E0001CC6F080ECB6F53EC17F0DB
:100508000001C7510001C811D8B412000F0E010133
:100518000C6F120025EC1EF08BC1F0F28CC1F1F2C9
:100528000201F0510201F111D8B412D0800E00017D
:10053800C76F020E0001C86F3D0E0001C96F7F0E24
:100548000001CA6F24EC1FF0180E01010C6F120095
:10055800110E01010C6F1200E40E01018B6F020EE7
:1005680001018C6FC7EC0BF08BC1F0F28CC1F1F27A
:100578000201F0510201F111D8B412D0800E00012D
:10058800C76F020E0001C86FE10E0001C96F7E0E31
:100598000001CA6F24EC1FF0180E01010C6F120045
:1005A800E40E0001C76F020E0001C86FF70E0001CC
:1005B800C96F7F0E0001CA6F000E0001CC6F030ED9
:1005C800CB6F53EC17F00001C7510001C811D8B424
:1005D80004D0130E01010C6F1200E40E0001C76F66
:1005E800020E0001C86FF10E0001C96F7F0E0001F5
:1005F800CA6F000E0001CC6F050ECB6F53EC17F0DD
:100608000001C7510001C811D8B412D0800E0001F2
:10061800C76F020E0001C86F110E0001C96F7F0E6F
:100628000001CA6F24EC1FF0180E01010C6F1200B4
:10063800E40E0001C76F020E0001C86FE20E000150
:10064800C96F7F0E0001CA6F000E0001CC6F080E43
:10065800CB6F53EC17F00001C7510001C811D8B493
:100668001200120E01010C6F1200FBEC1CF08BC182
:10067800F0F28CC1F1F20201F0510201F111D8B48B
:1006880012D0800E0001C76F020E0001C86F510E14
:100698000001C96F7F0E0001CA6F24EC1FF0180E0D
:1006A80001010C6F1200140E01010C6F1200E40E10
:1006B80001018B6F020E01018C6F4FEC0DF08BC1A5
:1006C800F0F28CC1F1F20201F0510201F111D8B43B
:1006D80012D0800E0001C76F020E0001C86FF90E1C
:1006E8000001C96F7E0E0001CA6F24EC1FF0180EBE
:1006F80001010C6F1200E40E0001C76F020E000129
:10070800C86FF70E0001C96F7F0E0001CA6F000E97
:100718000001CC6F030ECB6F53EC17F00001C751EB
:100728000001C811D8B404D0160E01010C6F1200D4
:10073800E40E0001C76F020E0001C86FF10E000140
:10074800C96F7F0E0001CA6F000E0001CC6F050E45
:10075800CB6F53EC17F00001C7510001C811D8B492
:1007680012D0800E0001C76F020E0001C86F270E5D
:100778000001C96F7F0E0001CA6F24EC1FF0180E2C
:1007880001010C6F1200E40E0001C76F020E000198
:10079800C86FE20E0001C96F7F0E0001CA6F000E1C
:1007A8000001CC6F080ECB6F53EC17F00001C75156
:1007B8000001C811D8B41200150E01010C6F120007
:1007C80063EC14F084C1F0F285C1F1F20201F0513A
:1007D8000201F111D8B412D0800E0001C76F020EC9
:1007E8000001C86F650E0001C96F7F0E0001CA6F56
:1007F80024EC1FF0180E01010C6F1200190E0101F4
:100808000C6F120055EC20F0120001010C51000A87
:10081800D8B45BD4010AD8B47AD4030AD8B499D42A
:10082800010AD8B49CD4070AD8B4BBD4010AD8B4F6
:10083800CAD4030AD8B4D3D40F0AD8B4F2D4030A5A
:10084800D8B45DD5010AD8B46AD5060AD8B48FD50C
:10085800030AD8B4D6D5010AD8B4D3D51F0AD8B458
:1008680059D6010AD8B478D6030AD8B475D6010A7D
:10087800D8B4FBD6070AD8B41AD7010AD8B417D700
:10088800030AD8B49DD70E0AD8B41200010AD8A416
:100898001200B8D7D20E0001D96F000E0001DA6F2E
:1008A80032D2250E0001E619D8B40AD0CEC0D9FF3D
:1008B800CFC0DAFFE6C0DFFF0001CE4BCF2B23D23B
:1008C800000E0001E46F000EE36F000E0001E26FFE
:1008D800000EE16F05D00001E1870001D04BD12B5C
:1008E800D0C0F6FFD1C0F7FF0800F5502D0AD8B4E4
:1008F800F2D7D0C0F6FFD1C0F7FF0800F550B1EC31
:100908001FF0D8A040D0000E0001E46F000EE36F86
:10091800E3C0C7F0E4C0C8F0000E0001CA6F0A0EB9
:10092800C96FD5EC1EF0C7C0E3F0C8C0E4F0D00E24
:100938000001D46FFF0E0001D56FD0C0F6FFD1C003
:10094800F7FF0800F5500001D66FD76B0001D451AE
:100958000001D6270001D5510001D7230001D65147
:100968000001E3270001D7510001E4230001D04B27
:10097800D12BD0C0F6FFD1C0F7FF0800F550B1EC7D
:100988001FF0D8B0C5D7D0C0F6FFD1C0F7FF080018
:10099800F5502E0AD8A427D00001E28D0001D04BD3
:1009A800D12B000E0001E56F13D0D0C0F6FFD1C0E7
:1009B800F7FF0800F5CFD4F00001E5510A0DF35018
:1009C8000001D425D00F0001E56F0001D04BD12BD9
:1009D800D0C0F6FFD1C0F7FF0800F550B1EC1FF00A
:1009E800D8A095D0E2D7000E0001E56F90D00001A5
:1009F800E28BA2D00001E5510001D8B417D0E5C0C0
:100A0800D4F00001D56BD4BFD5070001DF51000138
:100A1800D45D0001E0510001D559D8B007D00001DC
:100A2800E5510001DF6FE06BDFBFE0070001E35134
:100A38000001DF5D0001E4510001E059D8B009D0A0
:100A48000001DF510001E35F0001E0510001E45BB8
:100A580005D0000E0001E46F000EE36F0001E1A76E
:100A68000AD025D0CEC0D9FFCFC0DAFF200EDF6E66
:100A78000001CE4BCF2B0001E307D8A0E40700010B
:100A8800E329F0E10001E429D8B411D0EBD7DBC0A9
:100A9800D9FFDCC0DAFFCEC0E1FFCFC0E2FFDFCF75
:100AA800E7FF0001DB4BDC2B0001CE4BCF2B000115
:100AB800DF07D8A0E0070001DF29E9E10001E0290C
:100AC800D8A4E5D70001E1B70AD01DD1CEC0D9FF1F
:100AD800CFC0DAFF200EDF6E0001CE4BCF2B000116
:100AE800E307D8A0E4070001E329F0E10001E429C5
:100AF800D8B409D1EBD7E60E0001DB6F000E000178
:100B0800DC6F000E0001E06F010EDF6F73D7D0C0FD
:100B1800F6FFD1C0F7FF0001D04BD12B0800F5CF6D
:100B2800E6F00001E651000AD8B4FBD0700AD8B448
:100B38005ED7080AD8A4DFD7D9C0D9FFDAC0DAFF50
:100B4800DECFDDF0DDCFDEF0020E0001D927000E8A
:100B5800DA230001E5510001D8A408D00001DD51D5
:100B68000001DE11D8A402D00001E52B010E00011E
:100B7800E66F040E0001E619D8B416D00001E6515C
:100B8800020D4A0EF324F66E7D0EF420F76E09006E
:100B9800F5500001DD5D0900F5500001DE59D8A0CF
:100BA80003D00001E62BE5D70001E651800A0001D9
:100BB800D46F0001E551800A0001D45DD8B003D09C
:100BC800E5C0E6F00DD00001E551800A0001D46FC0
:100BD8000001E651800A0001D45DD8A0E6C0E5F026
:100BE800800E0001E6BF7F0E0001D46F0001E351C3
:100BF8000001E65D0001E451800A0001D459D8B033
:100C08000BD00001E6510001E35F000E0001E6BFD2
:100C1800FF0E0001E45B05D0000E0001E46F000E3A
:100C2800E36F0001E3510001E411D8B446D000019C
:100C3800E1B743D0CEC0D9FFCFC0DAFF200EDF6EB8
:100C48000001CE4BCF2B0001E307D8A0E407000139
:100C5800E3510001E411D8B430D0ECD7DDC0C7F0BF
:100C6800DEC0C8F00001E551020D4A0EF324F66E0D
:100C78007D0EF420F76E0900F5CFC9F00A00F5CF14
:100C8800CAF04DEC1CF00001C7510F0B0001D86FE2
:100C98000001D851010DC30EF324F66E7F0EF42027
:100CA800F76E0800F5CFE6F0CEC0D9FFCFC0DAFF67
:100CB800E6C0DFFF0001CE4BCF2B0001E5070001A6
:100CC800E529D8A4CBD70001E1A71DD00001E4BFD6
:100CD8001AD00001E45104E10001E305D8A013D0C3
:100CE800CEC0D9FFCFC0DAFF200EDF6E0001CE4B99
:100CF800CF2B0001E307D8A0E4070001E35100016E
:100D0800E411D8A4EDD7D0C0F6FFD1C0F7FF000199
:100D1800D04BD12B0800F5CFE6F00001E651D8A45E
:100D2800C0D5CEC0D9FFCFC0DAFF000EDF6E1200EB
:100D3800010120EE09F07E51D9267F51DA22DECF5B
:100D4800C7F0DECFC8F0DDCFC9F057EC1FF0C7C041
:100D5800E2F0C8C0E3F0C9C0E4F0010120EE06F0FB
:100D68007E51D9267F51DA22DECFE5F0DECFE6F0DC
:100D7800DDCFE7F0CFEC09F0010120EE0CF07E5159
:100D8800D9267F51DA22E2C0DEFFE3C0DEFFE4C0ED
:100D9800DEFF000E0001E26F000E0001E36F400E5F
:100DA8000001E46F010120EE0CF07E51D9267F513D
:100DB800DA22DECFE5F0DECFE6F0DDCFE7F01DEC9E
:100DC80018F00001D8A01BD0010120EE0CF07E51D4
:100DD800D9267F51DA22DECFE2F0DECFE3F0DDCF95
:100DE800E4F0000E0001E56F000E0001E66FC00E92
:100DF8000001E76F1DEC18F00001D8B012000101E6
:100E080020EE15F07E51D9267F51DA22DE50DE1011
:100E1800D8A497D0000E0001E26F000E0001E36F26
:100E2800000E0001E46F010120EE0CF07E51D9267E
:100E38007F51DA22DECFE5F0DECFE6F0DDCFE7F056
:100E48001DEC18F00001D8B038D0010120EE0FF0E9
:100E58007E51D9267F51DA22DECFE2F0DECFE3F0F1
:100E6800DDCFE4F0000E0001E56FFA0E0001E66F39
:100E7800460E0001E76F1DEC18F00001D8B061D0F4
:100E8800010120EE0FF07E51D9267F51DA22DECF04
:100E9800E2F0DECFE3F0DDCFE4F0010120EE0CF06C
:100EA8007E51D9267F51DA22DECFE5F0DECFE6F09B
:100EB800DDCFE7F0CFEC09F037D0000E0001E26F8C
:100EC800FA0E0001E36FC60E0001E46F010120EE87
:100ED8000FF07E51D9267F51DA22DECFE5F0DECF42
:100EE800E6F0DDCFE7F01DEC18F00001D8B029D00E
:100EF800010120EE0FF07E51D9267F51DA22DECF94
:100F0800E2F0DECFE3F0DDCFE4F0010120EE0CF0FB
:100F18007E51D9267F51DA22DECFE5F0DECFE6F02A
:100F2800DDCFE7F0CFEC09F0010120EE0FF07E51A4
:100F3800D9267F51DA22E2C0DEFFE3C0DEFFE4C03B
:100F4800DEFF010120EE0FF07E51D9267F51DA2213
:100F5800DECFD6F0DECFD7F0DDCFD8F0010120EE1E
:100F680002F07E51D9267F51DA22DECFCFF0DDCFD5
:100F7800D0F074EC1EF0CFC0D3F0D0C0D4F0D1C004
:100F8800D5F013EC0EF0D3C0E5F0D4C0E6F0D5C030
:100F9800E7F0010120EE0CF07E51D9267F51DA22CC
:100FA800DECFD6F0DECFD7F0DDCFD8F07EC1D9FFC7
:100FB8007FC1DAFFDECFCFF0DDCFD0F074EC1EF0CA
:100FC800CFC0D3F0D0C0D4F0D1C0D5F013EC0EF020
:100FD800D3C0E2F0D4C0E3F0D5C0E4F0CFEC09F020
:100FE800E2C06FF1E3C070F1E4C071F1000E0101DD
:100FF800726F800E0101736F430E0101746F6DEC07
:101008000FF0010120EE12F07E51D9267F51DA222D
:101018006FC1DEFF70C1DEFF71C1DEFF010120EE8E
:1010280004F07E51D9267F51DA22DECFCFF0DDCF12
:10103800D0F074EC1EF0CFC0E2F0D0C0E3F0D1C025
:10104800E4F0010120EE12F07E51D9267F51DA2218
:10105800DECFE5F0DECFE6F0DDCFE7F01DEC18F0EF
:101068000001D8B026D0010120EE15F07E51D92616
:101078007F51DA22010EDE6E000EDD6E010120EED8
:1010880004F07E51D9267F51DA22DECFCFF0DDCFB2
:10109800D0F074EC1EF0010120EE12F07E51D9263A
:1010A8007F51DA22CFC0DEFFD0C0DEFFD1C0DEFF25
:1010B8001200010120EE12F07E51D9267F51DA226A
:1010C800020EDBAE19D0010120EE15F07E51D926B3
:1010D8007F51DA22010EDE6E000EDD6E010120EE78
:1010E80012F07E51D9267F51DA22000EDE6E000EF4
:1010F800DE6E000EDE6E1200010120EE15F07E514C
:10110800D9267F51DA22000EDE6E000EDD6E120047
:1011180004013205D8A411D0040130511F0B000975
:10112800D8A40BD000016B8F030E04013119D8A489
:1011380002D0010E01D0000E366E04013251D8A43F
:101148001200040130511F0B020AD8A41200040136
:1011580034510F0B0009D8B41200040134510F0B9D
:10116800266E030E26601200200E00019A19D8A4DC
:10117800120000016B8F040134BF1BD004013451ED
:101188000F0B266E2650020D740EF324D96E000E36
:10119800F420DA6EDECF2AF0DDCF2BF004013451D3
:1011A8000F0B266E2650010D880EF324D96E000E03
:1011B8001AD0040134510F0B266E2650020D6E0E04
:1011C800F324D96E000EF420DA6EDECF2AF0DDCFDC
:1011D8002BF0040134510F0B266E2650010D850E9D
:1011E800F324D96E000EF420DA6EDF50296E29B090
:1011F80002D02A9401D02A84040134BF0BD0040100
:1012080034510F0B266E2650020D740EF324D96E3E
:10121800000E0AD0040134510F0B266E2650020D21
:101228006E0EF324D96E000EF420DA6E2AC0DEFFAB
:101238002BC0DDFF030E04013119D8A42FD02AC01A
:10124800D9FF2BC0DAFFDFAE1CD0040134BF0BD0AE
:10125800040134510F0B266E2650010D880EF3241D
:10126800D96E000E0AD0040134510F0B266E265099
:10127800010D850EF324D96E000EF420DA6E0001FC
:10128800DF822AC0D9FF2BC0DAFF000EDB842AC018
:10129800D9FF2BC0DAFF000EDB8E1200040E2A1ACB
:1012A8002AC0D9FF2BC0DAFFDFAE1BD02AC0D9FF76
:1012B8002BC0DAFF7F0EDF162AC0D9FF2BC0DAFF5A
:1012C800000EDB8C000E1F6E050E1E6E2AC020F06D
:1012D8002BC021F0000E236E020E226E0FEC1CF0C4
:1012E80006D02AC0D9FF2BC0DAFF000EDB8C040E13
:1012F8002A1A29B206D02AC0D9FF2BC0DAFFDFAEDE
:1013080031D0040134BF0BD0040134510F0B266EC9
:101318002650010D880EF324D96E000E0AD0040160
:1013280034510F0B266E2650010D850EF324D96E0D
:10133800000EF420DA6E0001DF922AC0D9FF2BC01C
:10134800DAFF3B0EDF16000E1F6E050E1E6E2AC05A
:1013580020F02BC021F0000E236E020E226E0FEC3F
:101368001CF006D02AC0D9FF2BC0DAFF3B0EDF16CF
:10137800040134510F0B266E2650010D700EF32414
:10138800276E0F0EF420286E27C0D9FF28C0DAFF79
:10139800FE0EDF161200E4C0E8F00001E96BEA6B0C
:1013A8000001E3350001E83701E3E9810001E85174
:1013B8000001ED6FE7C0E8F00001E96BEA6B00019E
:1013C800E6350001E83701E3E9810001E851000151
:1013D800EC6F0001ED510001D8B411D00001EC51BF
:1013E8000001ED5DD8B012D00001ED5100080001F8
:1013F800EC250001E86F180E0001E86507D0E5C08C
:10140800E2F0E6C0E3F0E7C0E4F012000001EC51BE
:101418000001D8B411D00001ED510001EC5DD8B045
:1014280012D00001EC5100080001ED250001E86F21
:10143800180E0001E86507D0E2C0E2F0E3C0E3F06F
:10144800E4C0E4F01200060E0001EB6F0001E4AF07
:1014580002D00001EB8F0001E7AF02D00001EB8D55
:101468000001E38FFF0E0001E217FF0E0001E317F2
:10147800000E0001E4170001E68FFF0E0001E517DA
:10148800FF0E0001E617000E0001E7170001EC51FE
:101498000001ED5DD8B025D00001D890E537E637DA
:1014A800E7370001EC070001ED510001EC19D8B451
:1014B80011D00001EB07EBC0E8F0070E0001E817B8
:1014C800D8B408D0E9D70001D890E433E333E23345
:1014D8000001ED2B0001EC510001ED19D8B42BD01F
:1014E800F2D70001ED510001EC5DD8B024D0000125
:1014F800D890E237E337E4370001ED070001ED51FA
:101508000001EC19D8B411D00001EB07EBC0E8F0EA
:10151800070E0001E817D8B408D0E9D70001D89021
:10152800E733E633E5330001EC2B0001EC51000111
:10153800ED19D8A4F3D70001EBAF12D0FF0E0001CC
:10154800E21BFF0E0001E31BFF0E0001E41B010E6E
:101558000001E227000E0001E323000E0001E4234E
:101568000001EBAD12D0FF0E0001E51BFF0E0001DC
:10157800E61BFF0E0001E71B010E0001E527000E28
:101588000001E623000E0001E723000E0001EB6FC7
:101598000001E2510001E5270001E3510001E623C3
:1015A8000001E4510001E7230001E7AF15D0FF0E69
:1015B8000001E51BFF0E0001E61BFF0E0001E71B03
:1015C800010E0001E527000E0001E623000E0001D0
:1015D800E723010E0001EB6FE5C0C7F0E6C0C8F0D5
:1015E800E7C0C9F0EDC0CAF0EBC0CBF076EC12F062
:1015F800C7C0E2F0C8C0E3F0C9C0E4F01200A09A86
:101608000001945100019511D8B413D094C0D9FFAA
:1016180095C0DAFF0001DFAE04D00001CE6BCE2BFF
:1016280002D00001CE6B0001CE510001CF6FD06B0C
:1016380005D0000E0001D06F000ECF6F0001CF5112
:101648000001D011D8B402D0A08A1200030E000104
:101658009D19D8A403D0000E00019D6F00019D5173
:10166800D8A402D0A08A1200020E00019D19D8A4A5
:1016780017D0010E0001C76F000E0001C86F000EE1
:101688000001C96F000E0001CA6F020E3FEC15F091
:10169800C7C094F0C8C095F0030E00019D6F71D0CB
:1016A80000019D05D8A46DD0400E00019E6504D0B0
:1016B800400E0001D26F02D09EC0D2F00001D2517C
:1016C800000800019E2500019E6F000E00018B6F2F
:1016D800050E00018C6FD2C0D1F000019B51D8B427
:1016E80013D02AD08EC0D9FF8FC0DAFF8BC0E1FF9C
:1016F8008CC0E2FFDFCFE7FF00018B4B8C2B000192
:101708008E4B8F2B0001D1070001D1510001D8B4B5
:1017180018D0E8D78EC0D9FF8FC0DAFF8BC0E1FFA1
:101728008CC0E2FFDFCFE7FF00018B4B8C2B000161
:101738008E4B8F2B0001D1070001D1510001D8A495
:10174800E9D700019E51D8A40AD0400E0001D21951
:10175800D8A402D0020E01D0030E00019D6F010E25
:101768000001C76F000E0001C86F050E0001C96FA8
:10177800D2C0CAF0020E3FEC15F0C7C094F0C8C042
:1017880095F0A08A1200000E01018D6F000E010174
:101798008E6F000E01018F6F000E0101916F010E17
:1017A800906F8D0E01017E6F010E01017F6F870E14
:1017B800ABEC15F07EC190F17FC191F10101905120
:1017C80001019111D8B406D0000E01018C6F010EF1
:1017D8008B6F1200000182510001CF6F000183510D
:1017E8000001D06F000184510001D16F0001D26B5C
:1017F8008BEC1BF00001CF5101014D5D0001D05170
:1018080001014E59D8B017D08BC1C7F08CC1C8F0B0
:10181800F10E0001C96F7F0E0001CA6F000E0001B2
:10182800CC6F050ECB6F89EC1CF0000E01018C6F9C
:10183800000E8B6F12008DC1E2F08EC1E3F08FC1F4
:10184800E4F033C1D6F034C1D7F035C1D8F01CC1AB
:10185800CFF01DC1D0F09CEC1FF0CFC0D3F0D0C0AA
:10186800D4F0D1C0D5F013EC0EF0D3C0E5F0D4C05D
:10187800E6F0D5C0E7F01DEC18F00001D8A017D0AD
:101888008BC1C7F08CC1C8F0F70E0001C96F7F0E7D
:101898000001CA6F000E0001CC6F030ECB6F89ECFC
:1018A8001CF0000E01018C6F000E8B6F120020C11E
:1018B800A5F021C1A6F022C1A7F0D70EB8EC17F009
:1018C80084C190F185C191F10101905101019111FB
:1018D800D8B406D0000E01018C6F010E8B6F120078
:1018E8008BC1C7F08CC1C8F0E20E0001C96F7F0E32
:1018F8000001CA6F000E0001CC6F080ECB6F89EC97
:101908001CF0000E01018C6F000E8B6F1200000E90
:1019180001018D6F000E01018E6F000E01018F6FA6
:10192800000E0101916F010E906F8D0E01017E6F07
:10193800010E01017F6F870EABEC15F07EC190F1AF
:101948007FC191F10101905101019111D8B406D0E4
:10195800000E01018C6F010E8B6F12000001915176
:101968000001CF6F000192510001D06F0001935127
:101978000001D16F0001D26B8BEC1BF001013951D2
:101988000001CF5D01013A510001D059D8A017D00C
:101998008BC1C7F08CC1C8F0F10E0001C96F7F0E72
:1019A8000001CA6F000E0001CC6F050ECB6F89ECE9
:1019B8001CF0000E01018C6F000E8B6F12008DC1A0
:1019C800E2F08EC1E3F08FC1E4F036C1D6F037C142
:1019D800D7F038C1D8F01CC1CFF01DC1D0F09CECB5
:1019E8001FF0CFC0D3F0D0C0D4F0D1C0D5F013ECE5
:1019F8000EF0D3C0E5F0D4C0E6F0D5C0E7F01DEC9A
:101A080018F00001D8A017D08BC1C7F08CC1C8F05E
:101A1800F70E0001C96F7F0E0001CA6F000E0001AA
:101A2800CC6F030ECB6F89EC1CF0000E01018C6F9C
:101A3800000E8B6F12003BC1A5F03CC1A6F03DC162
:101A4800A7F0D70EB8EC17F084C190F185C191F1D9
:101A58000101905101019111D8B406D0000E010185
:101A68008C6F010E8B6F12008BC1C7F08CC1C8F050
:101A7800E20E0001C96F7F0E0001CA6F000E00015F
:101A8800CC6F080ECB6F89EC1CF0000E01018C6F37
:101A9800000E8B6F1200000E01018D6F000E010108
:101AA8008E6F000E01018F6F000E0101916F010E04
:101AB800906F8D0E01017E6F010E01017F6FD70EB1
:101AC800ABEC15F07EC190F17FC191F1010190510D
:101AD80001019111D8B406D0000E01018C6F010EDE
:101AE8008B6F1200000182510001CF6F00018351FA
:101AF8000001D06F000184510001D16F0001D26B49
:101B08008BEC1BF00001CF5101014D5D0001D0515C
:101B180001014E59D8B017D08BC1C7F08CC1C8F09D
:101B2800F10E0001C96F7F0E0001CA6F000E00019F
:101B3800CC6F050ECB6F89EC1CF0000E01018C6F89
:101B4800000E8B6F12008DC1E2F08EC1E3F08FC1E1
:101B5800E4F030C1E5F031C1E6F032C1E7F01DEC48
:101B680018F00001D8A017D08BC1C7F08CC1C8F0FD
:101B7800F70E0001C96F7F0E0001CA6F000E000149
:101B8800CC6F030ECB6F89EC1CF0000E01018C6F3B
:101B9800000E8B6F12001CC1CFF01DC1D0F09CEC61
:101BA8001FF0CFC0D3F0D0C0D4F0D1C0D5F033C12E
:101BB800D6F034C1D7F035C1D8F013EC0EF0D3C04D
:101BC800A5F0D4C0A6F0D5C0A7F0870EB8EC17F0E2
:101BD80084C190F185C191F10101905101019111E8
:101BE800D8B406D0000E01018C6F010E8B6F120065
:101BF8008BC1C7F08CC1C8F0E20E0001C96F7F0E1F
:101C08000001CA6F000E0001CC6F080ECB6F89EC83
:101C18001CF0000E01018C6F000E8B6F1200D5C0F6
:101C2800D9F00001DA6BDB6B0001D4350001D9373C
:101C380001E3DA810001D9510001DC6F0001DC51B8
:101C4800D8A40AD0000E0001D36F000E0001D46F93
:101C5800000E0001D56F1200D8C0D9F00001DA6B70
:101C6800DB6B0001D7350001D93701E3DA810001C8
:101C7800D9510001E16F0001E151D8A40AD0000E4A
:101C88000001D36F000E0001D46F000E0001D56F64
:101C980012000001E1517B0F0001DC27D5C0E1F003
:101CA8000001D8510001E11B800E0001E11700017D
:101CB800D48F0001D78FFF0E0001D617FF0E000149
:101CC800D717000E0001D817000E0001DD6F000EB7
:101CD8000001DE6F000E0001DF6F070E0001E06FEC
:101CE8000001D3A10CD00001D6510001DD2700016D
:101CF800D7510001DE230001D8510001DF23000184
:101D0800D890D533D433D3330001D890D637D737CA
:101D1800D8370001E02FE4D7090E0001E06F000179
:101D2800D3A10CD00001D6510001DD270001D75105
:101D38000001DE230001D8510001DF230001D89003
:101D4800D533D433D3330001D890DF33DE33DD33DA
:101D58000001E02FE4D7DDC0C7F0DEC0C8F0DFC067
:101D6800C9F0DCC0CAF0E1C0CBF076EC12F0C7C015
:101D7800D3F0C8C0D4F0C9C0D5F01200A09A000EA4
:101D88006A6E000E686E000E706E710E0001C76FED
:101D98000F0E0001C86F000E0001CA6F000EC96F58
:101DA800000E0001CC6F020ECB6FF0EC1EF0160E89
:101DB8006F6E9F0E6B6E7B0E696E000E0001CF6F0B
:101DC8000B0E0001CF6501D010D00001CF51040DDA
:101DD800000EF324D96E040EF420DA6EDE6ADE6A91
:101DE800DE6ADD6A0001CF2BEBD76D8C000E6E6EBC
:101DF8006D986D9C0CD06896000E00016B6F000EFC
:101E08000001636F000E0001656F000E646F68B615
:101E1800F2D7010E3B6E010E3C6E000E386E000EBE
:101E2800396E000E376E000E0001CF6F020E0001F2
:101E3800CF6501D033D00001CF51020D6E0EF324CF
:101E4800D96E000EF420DA6E000EDE6E000EDD6E26
:101E58000001CF51020D740EF324D96E000EF42048
:101E6800DA6E000EDE6E000EDD6E0001CF51010D40
:101E7800850EF324D96E000EF420DA6E000EDF6EA4
:101E88000001CF51010D880EF324D96E000EF42005
:101E9800DA6E000EDF6E0001CF2BC8D7080E0001E6
:101EA8006E6F040E00016F6F160E706E040E040143
:101EB800036F300E026F080E0401016F040E040157
:101EC800006F0401008F000E4C6E000E00019A6F27
:101ED800120071C175F10101766B776B01017035E4
:101EE8000101753701E376810101755101017C6FAC
:101EF80001017C51D8A40AD0000E01016F6F000EB9
:101F08000101706F000E0101716F120074C175F14B
:101F18000101766B776B010173350101753701E3B8
:101F280076810101755101017D6F01017D51D8A4B0
:101F38000AD0000E01016F6F000E0101706F000ED4
:101F48000101716F1200000E0101796F000E01018D
:101F58007A6F000E01017B6F01017D51890F01012C
:101F68007C5F71C17DF10101745101017D1B800EFF
:101F780001017D170101708FFF0E01016F17FF0E20
:101F880001017017000E010171170101738FFF0E17
:101F980001017217FF0E01017317000E010174177A
:101FA800180E0101786F0101D89079377A377B379D
:101FB8000101725101016F5D0101735101017059F5
:101FC8000101745101017159D8A00ED0010172515B
:101FD80001016F5F010173510101705B01017451CF
:101FE8000101715B010179810101D8906F37703768
:101FF80071370101782FD7D779C1C7F07AC1C8F0F6
:102008007BC1C9F07CC1CAF07DC1CBF076EC12F07F
:10201800C7C06FF1C8C070F1C9C071F11200800E5D
:1020280004013019D8A41200C00E00016B6F89D0CA
:10203800170E0001686F7E0E0001696F000E000127
:102048006D6F120E6C6F120004013251D8A444D087
:1020580004013251020D6C0EF324F66E7D0EF4204D
:10206800F76E0900F5CF68F00A00F5CF69F0020EA7
:1020780000016825126E000E00016921136E12C05E
:10208800F6FF13C0F7FFF86A070EF76403D00800DD
:10209800F55005D0F6CFE9FFF7CFEAFFEF50000182
:1020A8006C6F030E00016825126E000E0001692195
:1020B800136E12C0F6FF13C0F7FFF86A070EF76435
:1020C80003D00800F55005D0F6CFE9FFF7CFEAFFB7
:1020D800EF5000016D6F1200000E00016B6F1200CF
:1020E800030E0401326125D004013251020D620E43
:1020F800F324F66E7D0EF420F76E0900F5CF68F034
:102108000A00F5CF69F068C0F6FF69C0F7FFF86A02
:10211800070EF76403D00800F55005D0F6CFE9FFA5
:10212800F7CFEAFFEF50126E125000016C6F6D6B23
:102138001200000E00016B6F1200000E00016B6FA1
:10214800120004013351010AD8B472D7030AD8B473
:102158007BD7010AD8B4C4D7F0D700019A05D8B400
:102168006DBA07D0000E686E69806988020E00019A
:102178009A6F68B469A403D068946FEC1FF06DA2DD
:1021880002D0A19A120068B069A007D04EEC11F0F5
:10219800A08A040E00019A6F689068B869A803D0F5
:1021A800C6EC1FF0689868AC18D069AC0ED0000E69
:1021B8001F6E730E1E6E000E206E000E216E000E36
:1021C800236E010E226E0FEC1CF0689C3D50D8A4C3
:1021D8003D063D50D8B481EC18F068BA69AA02D01F
:1021E80096EC1EF068B269A20FD07F0E1F6E1E68B3
:1021F800000E206E000E216E000E236E010E226E60
:102208000FEC1CF0000E6A6E040E00019A6102D0F9
:10221800A19A120069A63CD0000E0001B86F030E07
:102228000001B86501D034D068A632D06CCF4DF02B
:102238004D30E832E8320F0B406E68964DB407D047
:102248004050010D880EF324D96E000E06D0405080
:10225800010D850EF324D96E000EF420DA6E00010C
:10226800DF704050D8A403D016EC16F00ED0000E44
:102278001F6E720E1E6E4D0E206E000E216E000E29
:10228800236E000E226E0FEC1CF00001B82BC7D78E
:10229800A19A1200A09A000E6A6E000E686E000ED7
:1022A800706E710E126E0F0E136E000E156E000E0C
:1022B800146E000E176E020E166E86EC1FF0160EC8
:1022C8006F6E9F0E6B6E7B0E696E000E1A6E0B0E94
:1022D8001A6401D00ED01A50040D000EF324D96EE2
:1022E800040EF420DA6EDE6ADE6ADE6ADD6A1A2A15
:1022F800EED76D8C000E6E6E6D986D9C0CD0689646
:10230800000E00016B6F000E0001636F000E0001EC
:10231800656F000E646F68B6F2D7010E3B6E010E52
:102328003C6E000E386E000E396E000E376E000ED1
:102338001A6E020E1A6401D02ED01A50020D6E0EBB
:10234800F324D96E000EF420DA6E000EDE6E000E55
:10235800DD6E1A50020D740EF324D96E000EF420AF
:10236800DA6E000EDE6E000EDD6E1A50010D850E5F
:10237800F324D96E000EF420DA6E000EDF6E1A50C8
:10238800010D880EF324D96E000EF420DA6E000ECB
:10239800DF6E1A2ACED7080E00016E6F040E0001F8
:1023A8006F6F160E706E040E0401036F300E026F0D
:1023B800080E0401016F040E0401006F0401008F70
:1023C800000E4C6E000E00019A6F120020EE01F014
:1023D8002F50D9263050DA22DF50136E13500001E7
:1023E800645D000E6559D8A064C013F01350000155
:1023F800645F000E655B000E126E12D01250010D64
:10240800380EF324D96E040EF420DA6E60C0E1FFB2
:1024180061C0E2FFDFCFE7FF0001604B612B122AAA
:102428001350125CD8A0EAD700016451000165116D
:10243800D8B432D020EE01F03150D9263250DA2209
:10244800080EDF6E20EE02F03150D9263250DA2223
:10245800380EDE6E040EDD6E2FC0D9FF30C0DAFFF5
:10246800DFBC0DD031C0D9FF32C0DAFF480EDF6EB5
:1024780031C0D9FF32C0DAFF000EDB8E120031C046
:10248800D9FF32C0DAFF080EDF6E31C0D9FF32C083
:10249800DAFF000EDB8E120020EE01F03150D92653
:1024A8003250DA22080EDF6E20EE02F03150D926C3
:1024B8003250DA22300EDE6E040EDD6E31C0D9FFE6
:1024C80032C0DAFF040EDF6E31C0D9FF32C0DAFF46
:1024D800000EDB8E0001639F3A50D8A4120081ECF5
:1024E80018F012000001CA510001D8B408D0000148
:1024F800C7510001C8110001C911D8A411D0000E9C
:102508000001C76F000E0001C86F000E0001C96FFF
:1025180012000001CA2B0001D890C933C833C73351
:10252800000E0001C7150001CC6F000E0001C81590
:102538000001CD6FFE0E0001C9150001CE6F00012C
:10254800CC510001CD110001CE11D8B411D0E1D782
:102558000001CA2B010E0001C727000E0001C82385
:10256800000E0001C9230001D890C933C833C7330E
:10257800000E0001C7150001CC6F000E0001C81540
:102588000001CD6FFF0E0001C9150001CE6F0001DB
:10259800CC510001CD110001CE11D8B408D0D8D744
:1025A8000001CA070001D890C737C837C9370001EA
:1025B800C8BF04D0020E0001CA61F2D70001CAB137
:1025C80002D00001C89F0001D890CA330001CA5147
:1025D8000001C9130001CB510001D8B402D0000199
:1025E800C98FC7C0C7F0C8C0C8F0C9C0C9F01200B9
:1025F8006D9800016BBF39D0000163AF0BD0020E9C
:102608003E6E3950D8B45EEC1AF0000E3C6E000EE7
:102618003B6E120020EE01F03150D9263250DA22FA
:10262800080EDF6E20EE02F03150D9263250DA2241
:10263800300EDE6E040EDD6E31C0D9FF32C0DAFF17
:102648000C0EDF6E31C0D9FF32C0DAFF000EDB8E10
:102658006EC0D9FF6FC0DAFF040EDF6E6EC0D9FFFF
:102668006FC0DAFF000EDB8E1200040130AF10D00D
:10267800010E3E6E3850D8B45EEC1AF0000E3C6E77
:10268800000E3B6E3A50D8A4120081EC18F01200EC
:10269800020E3E6E20EE01F03150D9263250DA2279
:1026A800080EDF6E20EE02F03150D9263250DA22C1
:1026B800300EDE6E040EDD6E31C0D9FF32C0DAFF97
:1026C800040EDF6E31C0D9FF32C0DAFF000EDB8E98
:1026D800000E3C6E000E3B6E3A50D8A4120081ECFE
:1026E80018F0120004013039E832030B0009D8A4AD
:1026F800120050D000016B8F080E00019A6F120073
:1027080013EC10F01200F0EC13F012004C0E000164
:10271800686F000E0001696F00016B81010E0001F6
:102728006C6F00016B8F1200A4EC19F012008CEC96
:1027380008F0120004013451010D4A0EF32400017F
:10274800686F000EF4200001696F00016B81010EB3
:1027580000016C6F00016B8F120000016B8F040188
:102768003451010D4A0EF324D96E000EF420DA6EAE
:1027780032C4DFFF1200000E1F6E020E1E6E000E26
:10278800206E000E216E000E236E000E226E0FECDE
:102798001CF0120004013151000AD8B4C5D7010A4F
:1027A800D8B4C5D7020AD8B4C2D7060AD8B4A2D7B3
:1027B800030AD8B4A5D7010AD8B4DDD70F0AD8B40C
:1027C800A5D7010AD8B49FD7030AD8B4B3D7010A4A
:1027D800D8B4C3D7070A120000016B8F710E126EAE
:1027E8000F0E136E000E156E000E146E000E176E8F
:1027F800020E166E86EC1FF0000E126E040E136E9B
:10280800000E156E000E146E000E176E300E166E4A
:1028180086EC1FF06D8C000E266E020E266401D029
:1028280016D02650010D850EF324D96E000EF42023
:10283800DA6E000EDF6E2650010D880EF324D96E75
:10284800000EF420DA6E000EDF6E262AE6D74A0E56
:10285800126E000E136E000E156E000E146E000E32
:10286800176E020E166E86EC1FF06D9C080E0001A6
:102878006E6F040E00016F6F000E2F6E040E306E27
:102888002FC031F030C032F032C44CF04C50D8A4D4
:1028980004D0100E00019A6F1200000E1F6E010E78
:1028A8001E6E4C0E206E000E216E000E236E010E61
:1028B800226E0FEC1CF0200E00019A6F1200000E21
:1028C80001018B6F000E01018C6F000E01018D6FED
:1028D800000E0101876F010E866F1CC1CFF01DC16C
:1028E800D0F09CEC1FF0CFC0D3F0D0C0D4F0D1C052
:1028F800D5F033C1D6F034C1D7F035C1D8F013ECD8
:102908000EF0D3C088F1D4C089F1D5C08AF18B0EFE
:1029180001017E6F010E01017F6F870EABEC15F090
:102928007EC186F17FC187F10101865101018711BE
:10293800D8B406D0000E0101856F010E846F120015
:102948008BC1E2F08CC1E3F08DC1E4F088C1E5F001
:1029580089C1E6F08AC1E7F01DEC18F00001D8A0A3
:1029680017D088C1E2F089C1E3F08AC1E4F08BC1D5
:10297800E5F08CC1E6F08DC1E7F01DEC18F0000120
:10298800D8A006D0000E0101856F000E846F1200DA
:10299800000E0101856F010E846F1200000E010107
:1029A800886F000E0101896F000E01018A6F880E81
:1029B80001017E6F010E01017F6F870EABEC15F0F0
:1029C8007EC186F17FC187F101018651010187111E
:1029D800D8B406D0000E0101856F010E846F120075
:1029E80088C1E2F089C1E3F08AC1E4F036C1D6F0CB
:1029F80037C1D7F038C1D8F01CC1CFF01DC1D0F015
:102A08009CEC1FF0CFC0D3F0D0C0D4F0D1C0D5F02B
:102A180013EC0EF0D3C0E5F0D4C0E6F0D5C0E7F073
:102A28001DEC18F00001D8B006D084C1D9FF85C1CB
:102A3800DAFF010E05D084C1D9FF85C1DAFF000E87
:102A4800DE6E000EDD6E4F0E0001E76F7E0E000198
:102A5800E86F88C1E9F089C1EAF08AC1EBF084C166
:102A6800ECF085C1EDF033EC1DF0000E0101856F2F
:102A7800000E846F12000001CB6F0001C7510001E6
:102A8800D8B408D00001CB51020D6E0EF324D96ED4
:102A9800000E07D00001CB51020D740EF324D96E3D
:102AA800000EF420DA6EDECFCCF0DDCFCDF00001E1
:102AB800CC510001CD11D8A407D0000E0001C76F7A
:102AC800000E0001C86F1200000120EE02F0CC5188
:102AD800D926CD51DA22C8C0DEFFC9C0DDFF00010A
:102AE80020EE01F0CC51D926CD51DA22CAC0DFFF41
:102AF800CCC0D9FFCDC0DAFF400EDF16CCC0D9FF5D
:102B0800CDC0DAFF000EDB86CCC0D9FFCDC0DAFF1E
:102B1800000EDB8E0001C7510001D8B408D00001B7
:102B2800CB51020D6E0EF324D96E000E07D00001B2
:102B3800CB51020D740EF324D96E000EF420DA6E18
:102B4800040EDF1ACCC0C7F0CDC0C8F012000101D6
:102B5800806F000E0101816F000E0101826F000E6F
:102B68000101836F01018051EDEC1FF0000E00019F
:102B7800996F0A0E986F43EC20F00009D8B406D07C
:102B88000001985100019911D8A4F5D70001985176
:102B980000019911D8A406D0000E01017F6F010E23
:102BA8007E6F12001AEC20F0C7C0CFF0C8C0D0F07A
:102BB80074EC1EF0CFC081F1D0C082F1D1C083F196
:102BC800000E0101726F800E0101736F440E010146
:102BD800746F81C16FF182C170F183C171F16DECC5
:102BE8000FF06FC1D3F070C1D4F071C1D5F0000EF1
:102BF8000001D66FA00E0001D76F400E0001D86FFC
:102C080013EC0EF07EC1D9FF7FC1DAFFD3C0DEFF1F
:102C1800D4C0DEFFD5C0DEFF000E01017F6F000EBD
:102C28007E6F12002D0E3D6E4DC0B6F0FD0E0001F8
:102C3800B617D8A45AD04DC0B6F00001D890B63314
:102C48003F0E0001B6170001B651040D000EF32423
:102C58002F6E040EF420306E2FC031F030C032F0E9
:102C6800040E311A2FC0D9FF30C0DAFFDF30E83246
:102C78000F0B0D0AD8A436D0000E2C6E070E2C644C
:102C880001D023D020EE02F02F50D9263050DA227E
:102C9800DECFB6F0DDCFB7F0B6C0D9FFB7C0DAFFE8
:102CA8002C50010D300EF324E16E040EF420E26E78
:102CB800DFCFE7FF20EE02F02F50D9263050DA227E
:102CC800DE2A000EDD222C2AD9D720EE02F02F5062
:102CD800D9263050DA22300EDE6E040EDD6E44EC5A
:102CE8001BF01200CDEC1DF012004D50FD0B040A34
:102CF800D8A41200E3EC18F01200080E126E0001BE
:102D08006D5111E1080E00016C5DD8B00CD06CC09B
:102D180012F04150D8A402D0010E04D04104D8A426
:102D280002D0020E416E125000016C5F000E6D5B06
:102D3800000120EE01F06E51D9266F51DA2212C03F
:102D4800DFFF380E336E040E346E00016BA11CD009
:102D58003AD068C0F6FF69C0F7FFF86A33C0D9FFF8
:102D680034C0DAFF070EF76403D00800F55005D029
:102D7800F6CFE9FFF7CFEAFFEF50DF6E0001684BAF
:102D8800692B334A342A12061250D8B41200E1D7FC
:102D980068C0F6FF69C0F7FFF86A33C0D9FF34C0CE
:102DA800DAFF070EF76403D00800F55005D0F6CF18
:102DB800E9FFF7CFEAFFEF50DF6E0001684B692BA0
:102DC800334A342A12061250D8B41200E1D704014B
:102DD80030511F0BE806D8A4120004013039E8323C
:102DE800030BE806D8A4120004013451D8B445D026
:102DF80004013405D8A4120040D0670E0001686FA2
:102E0800010E0001696F000E00016D6F080E6C6FF6
:102E180000016B8100016B8F1200670E0001686F63
:102E2800010E0001696F00016B8F120036C464F057
:102E380037C465F0430E0001606F000E0001616F3A
:102E4800000E0001666F000E0001676F0001638FBE
:102E58001200430E0001686F000E0001696F000E3A
:102E680000016D6F070E6C6FC10E00016B6F1200D1
:102E780032C43FF000016B8F120004013151000A87
:102E8800D8B4BBD7010AD8B4C8D7210AD8B4CED78A
:102E9800010AD8B4DED7030AD8A41200E9D753D060
:102EA800C7C0D9FFC8C0DAFFDF50D8B41BD0C7C02D
:102EB800D9FFC8C0DAFFDF500001CD6FC9C0F6FFE7
:102EC800CAC0F7FFF86A070EF76403D00800F55088
:102ED80005D0F6CFE9FFF7CFEAFFEF500001CD1993
:102EE800D8B42BD0C9C0F6FFCAC0F7FFF86A070EDE
:102EF800F76403D00800F55005D0F6CFE9FFF7CF07
:102F0800EAFFEF500001CD6FCE6B0001CD1FCE1F41
:102F1800CD4BCE2BC7C0D9FFC8C0DAFFDF500001A8
:102F2800CF6F0001CF510001CD250001C76F000E02
:102F38000001CE210001C86F12000001C74BC82B49
:102F48000001C94BCA2B0001CB07D8A0CC07000150
:102F5800CB29A6E10001CC29D8A4A2D7000E0001F4
:102F6800C86F000EC76F12000101866F000E0101C5
:102F78008A6F000E896FA80E01017E6F000E010195
:102F88007F6F01018651ABEC15F07EC187F17FC1DF
:102F980088F10101875101018811D8B406D0000ECB
:102FA8000101856F010E846F12009F0E01017E6F73
:102FB800000E01017F6F9CEC06F00101894B8A2B02
:102FC800000E0001E26F000E0001E36F400E0001E9
:102FD800E46FABC0E5F0ACC0E6F0ADC0E7F01DECC7
:102FE80018F00001D8A014D0ABC0E2F0ACC0E3F0F8
:102FF800ADC0E4F0000E0001E56F000E0001E66FC1
:10300800C00E0001E76F1DEC18F00001D8B00BD01E
:1030180001018ABFB0D701018A5105E1050E0101FE
:10302800895DD8A0A8D7000E0101856F000E846FB6
:1030380012000001E4AF1DD0E2C0E8F0E3C0E9F0FF
:10304800E4C0EAF00001E81FE91FEA1FE82B000EC0
:10305800E923EA23000E0001E8250001E26F000ED3
:103068000001E9210001E36F800E0001EA2100015F
:10307800E46F0001E7AF1DD0E5C0E8F0E6C0E9F075
:10308800E7C0EAF00001E81FE91FEA1FE82B000E7D
:10309800E923EA23000E0001E8250001E56F000E90
:1030A8000001E9210001E66F800E0001EA2100011C
:1030B800E76F000E0001E21B000E0001E31B800E0B
:1030C8000001E41B000E0001E51B000E0001E61BD9
:1030D800800E0001E71B0001E5510001E25D0001DF
:1030E800E6510001E3590001E7510001E459D8B065
:1030F80002D0D8901200D88012003B50D8A41200F9
:10310800010E3B6E3C50D8A41200010E3C6E020E1C
:103118003E18D8A416D0000120EE01F06E51D92631
:103128006F51DA22000EDF6E6EC0D9FF6FC0DAFF72
:10313800480EDF6E6EC0D9FF6FC0DAFF000EDB8E5F
:1031480012003E04D8A41200000E356E20EE01F0E5
:103158002F50D9263050DA22080EDF6E20EE02F00A
:103168002F50D9263050DA22300EDE6E040EDD6E76
:103178002FC0D9FF30C0DAFF040EDF6E2FC0D9FF91
:1031880030C0DAFF000EDB8E010E356E20EE01F046
:103198003150D9263250DA22080EDF6E20EE02F0C6
:1031A8003150D9263250DA22300EDE6E040EDD6E32
:1031B80031C0D9FF32C0DAFF800EDF6E12006EC058
:1031C800D9FF6FC0DAFF000EDFBC010E136E040ECC
:1031D80000016E1B080E00019A19D8A40CD0040136
:1031E80032517F0B6E6E6E50D8B402D0100E01D0E3
:1031F800040E00019A6F3E04D8A43BD0000120EED3
:1032080002F06E51D9266F51DA22380EDE6E040EA6
:10321800DD6E81EC16F0020E4118D8A40DD06EC0F8
:10322800D9FF6FC0DAFF040EDF6E6EC0D9FF6FC022
:10323800DAFF000EDB8E12001350D8A40DD06EC03A
:10324800D9FF6FC0DAFF480EDF6E6EC0D9FF6FC0BE
:10325800DAFF000EDB8E12006EC0D9FF6FC0DAFFF6
:10326800080EDF6E6EC0D9FF6FC0DAFF000EDB8E6E
:103278001200000163AF02D00001639F000E3E6E92
:103288001200000E0001CC6F0001CAAF08D0000187
:10329800C96DCA1FD8B0CA2B010E0001CC6F00013E
:1032A800C8AF08D00001C76DC81FD8B0C82B010E21
:1032B8000001CC1B000E0001CE6F000ECD6F000187
:1032C800C9510001CA11D8B42CD0010E0001CB6F2E
:1032D80006D00001D890C937CA370001CB2B0001AE
:1032E800CAAFF7D70001D890CD37CE370001C95102
:1032F8000001C75D0001CA510001C859D8A00AD011
:103308000001C9510001C75F0001CA510001C85B33
:103318000001CD810001D890CA33C9330001CB2FF9
:10332800E1D70001CC510001D8B405D00001CD6D22
:10333800CE1FD8B0CE2BCDC0C7F0CEC0C8F012007B
:10334800000E0401386F000E0401396F3BD00001F4
:103358006B8F3604D8A442D0040138833FD00001D3
:103368006B8F3CD000016B8F040134BF0BD004017C
:1033780034510F0B126E1250020D740EF324D96ED5
:10338800000E0AD0040134510F0B126E1250020DB8
:103398006E0EF324D96E000EF420DA6EDECF13F031
:1033A800DDCF14F013C0D9FF14C0DAFFDFAE16D09A
:1033B80013C0D9FF14C0DAFFDFA410D0010E040136
:1033C800386F0CD0040130511F0B000AD8B4BFD796
:1033D800010AD8B4C4D7030AD8B4C4D700016BAF64
:1033E8001200380E0001686F040E0001696F0001B9
:1033F8006B81020E00016C6F1200166E1250D8B469
:1034080007D01650020D6E0EF324D96E000E06D0AA
:103418001650020D740EF324D96E000EF420DA6EE5
:10342800DECF17F0DDCF18F017501810D8A405D04C
:10343800000E126E000E136E120020EE02F01750EE
:10344800D9261850DA2213C0DEFF14C0DDFF20EEA3
:1034580001F01750D9261850DA2215C0DFFF17C01F
:10346800D9FF18C0DAFF400EDF1617C0D9FF18C001
:10347800DAFF000EDB8617C0D9FF18C0DAFF000E8E
:10348800DB8E1250D8B407D01650020D6E0EF324FE
:10349800D96E000E06D01650020D740EF324D96EA4
:1034A800000EF420DA6E040EDF1A17C012F018C0EE
:1034B80013F01200000E386E000E396E020E3E1820
:1034C800D8A41FD020EE01F03150D9263250DA228C
:1034D800080EDF6E20EE02F03150D9263250DA2283
:1034E800380EDE6E040EDD6E31C0D9FF32C0DAFF51
:1034F800480EDF6E31C0D9FF32C0DAFF000EDB8E16
:10350800120000016C510401365D00016D51040187
:103518003759D8B004D036C46CF037C46DF081EC9C
:1035280016F0000120EE02F06E51D9266F51DA2212
:10353800380EDE6E040EDD6E6EC0D9FF6FC0DAFF86
:10354800480EDF6E6EC0D9FF6FC0DAFF000EDB8E4B
:1035580012000B0E01010C6F170E0001C76F010E50
:103568000001C86FEB0E0001C96F7F0E0001CA6F22
:10357800000E0001CC6F050ECB6F89EC1CF0000E1D
:103588000101366FA00E0101376F400E0101386F3F
:10359800000E01011D6F010E1C6F000E01013B6F33
:1035A800000E01013C6F3F0E01013D6F000E00014E
:1035B8007E6F000E7F6F000E806F000E816F040E0D
:1035C8000001C76FFE0E0001C86FE70ED1EC1BF0BB
:1035D8008F0E3EEC1FF0000E0001A26F020EA16FCD
:1035E800000E0001A06F230E9F6F1200176E000ED1
:1035F800186E040E196E1250136E146AD890133692
:1036080014361750156E166AD89015361636D89097
:10361800153616361350152614501622D89015361E
:103628001636D89015361636155018261650192203
:1036380018C0D9FF19C0DAFFDF9E1250D8A407D0EE
:103648001750020D740EF324D96E000E06D01750D1
:10365800020D6E0EF324D96E000EF420DA6E18C037
:10366800DEFF19C0DDFF18C0D9FF19C0DAFFDF9CE3
:1036780020EE04F01850D9261950DA22DF8C1200F7
:10368800000E416E000E3A6E000E386E000E396E56
:10369800000E356E000E3E6E6EC0D9FF6FC0DAFFA9
:1036A8007F0EDF16040E00016E1B6EC0D9FF6FC0BF
:1036B800DAFF7F0EDF16040E00016E1B31C0D9FF42
:1036C80032C0DAFF7F0EDF16000E00016B6F000EAE
:1036D80000016D6F000E6C6F000E0001636F000E2D
:1036E8000001656F000E646F76EC13F0000E1F6E1C
:1036F800030E1E6E000E206E000E216E000E236E4D
:10370800000E226E0FEC1CF0FCEC12F01200000E02
:103718000001D66F000ED56F0001CF5100017E5D0C
:103728000001D05100017F590001D1510001805999
:1037380000018151800A0001D36F0001D251800A33
:103748000001D359D8A024D0CFC0D3F0D0C0D4F032
:103758000001D31FD41FD34BD42B00017E5100018D
:10376800D3250001D56F00017F510001D42100014C
:10377800D66FD5C0C7F0D6C0C8F0000E0001CA6F1A
:103788003C0EC96F45EC19F0C7C0D5F0C8C0D6F0DB
:10379800D5C0CFF0D6C0D0F012000001CB6F000E1C
:1037A800C26E000EC06E0001D890C7313C0BC26ECD
:1037B800C7C0C9F00001C93BF00EC917300E00019F
:1037C800C9170001C8510F0B0001C911C16ECBC048
:1037D800C9F00001D890C9370001D890C937380E10
:1037E8000001C917CBC0CAF00001CA3B0F0ECA17A7
:1037F800070E0001CA170001CB51800B0001CA1146
:103808000001C911C06E0001C7AF03D09E9C9D8CFA
:10381800F28CC280120012D056EC20F0120058EC44
:1038280020F0120057EC20F012004FEC20F01200AC
:10383800EBEC16F0120059EC20F012001EC024F038
:103848001FC025F02550000AD8B404D07F0AD8A498
:1038580012001AD02450010AD8B4E7D7030AD8B402
:103868001200010AD8B4E4D7060AD8B41200770ABD
:10387800D8B41200010AD8B4CFD7070AD8B4D2D71F
:10388800010AD8A41200CBD72450FF0AD8A41200EA
:10389800D2D7000E0001CD6F000ECC6F0001C951C8
:1038A8000001CA11D8B42CD0010E0001CB6F06D08C
:1038B8000001D890C937CA370001CB2B0001CAAF25
:1038C800F7D70001D890CC37CD370001C951000196
:1038D800C75D0001CA510001C859D8A00AD000012B
:1038E800C9510001C75F0001CA510001C85B00014E
:1038F800CC810001D890CA33C9330001CB2FE1D75E
:10390800CCC0C7F0CDC0C8F01200C7C0CDF0C8C049
:10391800CEF018D00001CB07D8A0CC07C9C0F6FF5D
:10392800CAC0F7FF0001C94BCA2BCDC0D9FFCEC012
:10393800DAFF0001CD4BCE2B0800F5CFDFFFDF50BB
:10394800D8B410D00001CB510001CC11D8B40AD0A2
:10395800E1D7CDC0D9FFCEC0DAFF000EDF6E00017F
:10396800CD4BCE2B0001CB07D8A0CC070001CB292B
:10397800F0E10001CC29D8B41200EBD70600E9CF5A
:10398800BBF0EACFBCF0E1CFBDF0E2CFBEF0D9CFBB
:10399800BFF0DACFC0F0F3CFC1F0F4CFC2F0F6CF6A
:1039A800C3F0F7CFC4F0F8CFC5F0F5CFC6F0B1EC4F
:1039B80010F0C6C0F5FFC5C0F8FFC4C0F7FFC3C00C
:1039C800F6FFC2C0F4FFC1C0F3FFC0C0DAFFBFC03A
:1039D800D9FFBEC0E2FFBDC0E1FFBCC0EAFFBBC06B
:1039E800E9FFBAC0FBFFB9C0FAFF4E9211001CC133
:1039F800CFF01DC1D0F09CEC1FF0CFC0D3F0D0C0E9
:103A0800D4F0D1C0D5F033C1D6F034C1D7F035C128
:103A1800D8F013EC0EF0D3C0A5F0D4C0A6F0D5C0F2
:103A2800A7F0000E0001B56F000EB46F870EB8EC5A
:103A380017F084C18DF185C18EF101018D5101010D
:103A48008E11D8B406D0000E01018C6F010E8B6F59
:103A58001200000E01018C6F000E8B6F1200E90E30
:103A680001016F6F000E0101706F400E0001CE6FF3
:103A7800020E0001CF6FE7C0D0F0E8C0D1F06F0EA2
:103A88000001D26F010E0001D36F4EEC04F01F0E3F
:103A980000019A6512006DB2120000019D51D8A470
:103AA8001200400E0001CD6F020E0001CE6F400ED5
:103AB8000001C76F020E0001C86F4FEC1EF0000135
:103AC800C7510001CF6FDAEC1FF01200000E436EF1
:103AD8004B0E446E000E456E000E466E000E476E8D
:103AE800000E486E080E496E000E00019C6F1A0EFB
:103AF8001A6E010EB7EC1EF01E0E1A6E020EB7EC0F
:103B08001EF0000E126E400E136E050E146E400E5F
:103B1800156E020E01EC1AF012C096F013C097F061
:103B2800000E0001946F000E0001956F000E000159
:103B38009D6F120002EE00F0800EEE6AE806FDE1CD
:103B480001EE00F06F0EEE6AE806FDE100EE60F0AF
:103B5800560EEE6AE806FDE100EE2DF0210EEE6A43
:103B6800E806FDE1460EF66E400EF76E000EF86EA2
:103B780001EE92F010EE0FF00900F5CFEEFFE550E0
:103B8800E150FAE14E904E92000EF86E00010EEFF1
:103B980020F0020E3E18D8A403D0EAEC11F012006F
:103BA800000E3E6E3550D8A41FD020EE01F03150E3
:103BB800D9263250DA22080EDF6E20EE02F031509C
:103BC800D9263250DA22300EDE6E040EDD6E31C098
:103BD800D9FF32C0DAFF0C0EDF6E31C0D9FF32C018
:103BE800DAFF000EDB8E1200000E356E12003BC1AC
:103BF800A5F03CC1A6F03DC1A7F0000E0001B56FCD
:103C0800000EB46FD70EB8EC17F084C18DF185C1E2
:103C18008EF101018D5101018E11D8B406D0000E2C
:103C280001018C6F010E8B6F12007EC091F07FC076
:103C380092F080C093F0000E01018C6F000E8B6F24
:103C4800120020C1A5F021C1A6F022C1A7F0000EE4
:103C58000001B56F000EB46FD70EB8EC17F084C131
:103C68008DF185C18EF101018D5101018E11D8B4FC
:103C780006D0000E01018C6F010E8B6F12007EC002
:103C880082F07FC083F080C084F0000E01018C6F49
:103C9800000E8B6F1200C7C0CBF0C8C0CCF003D0A9
:103CA8000001CB4BCC2BCBC0D9FFCCC0DAFFDF5007
:103CB800D8A4F6D7C7C0C9F0C8C0CAF00001C91F48
:103CC800CA1FC94BCA2B0001CB510001C9250001ED
:103CD800C76F0001CC510001CA210001C86F120052
:103CE800000E0001D26F0001D0AF08D00001CF6DE7
:103CF800D01FD8B0D02B010E0001D26FCFC0C7F0B3
:103D0800D0C0C8F00001C96B8E0E0001CA6FD2C0C6
:103D1800CBF076EC12F0C7C0CFF0C8C0D0F0C9C065
:103D2800D1F0120070A01DD02FC0D9FF30C0DAFF2B
:103D3800800EDE18D8A414D06EC0D9FF6FC0DAFF89
:103D4800840EDE18D8A40CD02FC0D9FF30C0DAFFFB
:103D58000C0EDF6E2FC0D9FF30C0DAFF000EDB8EED
:103D68007090689A12001D6E1AA405D0000E126E8B
:103D78001D50FAEC1AF01AA205D0010E126E1D5051
:103D8800FAEC1AF01D50010D700EF3241B6E0F0E85
:103D9800F4201C6E1BC0D9FF1CC0DAFF1AC0DFFF5D
:103DA80012000001C7510001C903F3CFCBF0F4CFD3
:103DB800CCF00001C7510001CA03F3500001CC2721
:103DC8000001C8510001C903F3500001CC27CBC042
:103DD800C7F0CCC0C8F01200C7C0CDF0C8C0CEF044
:103DE80009D0CDC0D9FFCEC0DAFFC9C0DFFF0001BE
:103DF800CD4BCE2B0001CB07D8A0CC070001CB2997
:103E0800F0E10001CC29D8B41200EBD700019A5197
:103E1800D8A41200000E6D6E000E696E160E6F6E3D
:103E28009F0E6B6E7B0E696ED08EA28AA08AF28E70
:103E380001D06D866DA6FDD7010E00019A6F1200A4
:103E4800C7C0CBF0C8C0CCF006D00001CB4BCC2B00
:103E58000001C94BCA2BC9C0F6FFCAC0F7FFCBC0C7
:103E6800D9FFCCC0DAFF0800F5CFDFFFDF50D8B4A8
:103E78001200EBD70001C76F0001C7517E0BCD6E52
:103E88000001C7AD02D0CD8E01D0CD9E000ECF6E01
:103E9800000ECE6E9E900001C7AF02D09D8001D06B
:103EA8009D90CD8012000001C7510001C81100018A
:103EB800C911D8B409D0000E0001C71B000E0001BB
:103EC800C81B800E0001C91BC7C0C7F0C8C0C8F016
:103ED800C9C0C9F01200000E376E000E1F6E740EB6
:103EE8001E6E000E206E000E216E000E236E000E58
:103EF800226E0FEC1CF06D92699401D0689468A44E
:103F08001200FCD712C018F013C019F008D018C05E
:103F1800D9FF19C0DAFF14C0DFFF184A192A16069C
:103F2800D8A017061628F3E11728D8B41200EFD73F
:103F3800CFC0C7F0D0C0C8F00001C96B8E0E000119
:103F4800CA6F000E0001CB6F76EC12F0C7C0CFF03D
:103F5800C8C0D0F0C9C0D1F012000001C96F000E6E
:103F68000001C86F3A0E0001C96107D02F0E000189
:103F7800C96503D0010E0001C86FC8C0C7F00001B1
:103F8800C7311200698468986D82010E376E000E81
:103F98001F6E750E1E6E000E206E000E216E000E36
:103FA800236E000E226E0FEC1CF01200A09A000186
:103FB8009D51D8A40CD0CDC08EF0CEC08FF0CFC00C
:103FC8009EF0010E00019B6F010E00019D6FA08AFB
:103FD80012000001C86FC8C0C7F00001D890C733ED
:103FE8003C0E0001C717C250C30B0001C711C26EB7
:103FF800C28212000001CF6F03D0ADEC1AF012009C
:104008000001CF51000AD8B4F8D7010AD8B4120079
:10401800030A1200000EFEEC1FF0C2EC0EF00AECD0
:104028001FF055EC00F003EC0BF0FBD7C450000177
:10403800C96FC3500001C76FC9C0C8F012004C490E
:10404800504F004E494D4800504200000000000EFD
:104058000001C86F000EC76F1200000E0001C86F84
:10406800000EC76F1200000E0001C86F000EC76F68
:104078001200000E0001C86F000EC76F1200C2A226
:1040880002D0010E1200000E1200000E0001C86FCF
:10409800000EC76F12006AEC1DF012001200120029
:0C40A800120012001200120012001200A0
:107D2E000032342E204A75696C2E203230313500E7
:107D3E0056657273696F6E20312E3000010010008F
:107D4E0000010010434841524745520042544E2D07
:107D5E0043524700297EB17DE97D42544E006E7D2F
:107D6E0009024300020100C03209040000010202B0
:107D7E00010005240010010424020205240600015E
:107D8E000524010001070581030800020904010012
:107D9E00020A0000000705020240000007058202E9
:107DAE004000003803410020004D0069006300725E
:107DBE00006F0063006800690070002000540065C9
:107DCE0000630068006E006F006C006F0067007942
:107DDE0000200049006E0063002E002E0343004871
:107DEE0000410052004700450052002000200020B4
:107DFE000028002D003E00200031003800460032E1
:107E0E00003500350030002900120100020200008A
:107E1E0008D8040A000100010200010403090470DD
:107E2E007265636F6E646974696F6E2076657269D0
:107E3E006669636174696F6E206661696C757265DF
:107E4E0000766F6C74616765203A2025662C207071
:107E5E007265636F6E646974696F6E203A2025686F
:107E6E006400507265636F6E646974696F6E20731F
:107E7E0061666574792074696D657220656E6465DE
:107E8E006400507265636F6E646974696F6E2073FF
:107E9E0074617274696E67206661696C75726500D3
:107EAE00507265636F6E646974696F6E2063686586
:107EBE00636B206661696C757265004170706C69E8
:107ECE00636174696F6E20696E697469616C697A39
:107EDE0065640043432076657269666963617469FF
:107EEE006F6E206661696C7572650043562076650B
:107EFE0072696669636174696F6E206661696C751B
:107F0E007265004343207361666574792074696DF0
:107F1E00657220656E646564004356207361666504
:107F2E0074792074696D657220656E6465640043B2
:107F3E0043207374617274696E67206661696C7533
:107F4E007265004356207374617274696E672066A1
:107F5E0061696C7572650043562073746F70696E3B
:107F6E0067206661696C757265004C696F7020637D
:107F7E006865636B206661696C7572650050726F1F
:107F8E006772616D206C697374204572726F720036
:107F9E0042617474657279206C69737420457272D3
:107FAE006F7200416374696F6E206C697374204543
:107FBE0072726F7200303132333435363738396180
:107FCE00626364656600436861726765722045721C
:107FDE00726F720050524F4752455353004C4950E6
:107FEE004F000054494D455200454E440025730044
:027FFE00000081
:020000040020DA
:08000000FFFFFFFFFFFFFFFF00
:020000040030CA
:0E000000240E3F1EFF0081FF0FC00FE00F40D7
:00000001FF
